:020000040800F2
:10000000E8070020DD0100083B1300082F0A000864
:100010003713000869080008DF240008000000000A
:10002000000000000000000000000000E5160008CD
:100030006D08000800000000CD150008011A000836
:10004000F7010008F7010008F7010008F7010008B0
:10005000F7010008F7010008F7010008F7010008A0
:10006000F7010008F7010008F7010008F701000890
:10007000F7010008F7010008F7010008F701000880
:10008000F7010008F7010008F7010008F701000870
:10009000F7010008F7010008F7010008F701000860
:1000A000F7010008F7010008F7010008F701000850
:1000B000F7010008F7010008F7010008F701000840
:1000C000F7010008F7010008F7010008F701000830
:1000D000F7010008BD220008F7010008F701000839
:1000E000F7010008F7010008F7010008F701000810
:1000F000F7010008F7010008F7010008F701000800
:10010000F7010008F70100083D1D0008F70100088D
:10011000F7010008F7010008F7010008F7010008DF
:10012000F7010008F7010008F7010008F7010008CF
:1001300000F002F800F042F80AA090E8000C8244B7
:100140008344AAF10107DA4501D100F037F8AFF294
:10015000090EBAE80F0013F0010F18BFFB1A43F0A5
:10016000010318477497000094970000103A24BFC9
:1001700078C878C1FAD8520724BF30C830C144BF0C
:1001800004680C607047000000230024002500264E
:10019000103A28BF78C1FBD8520728BF30C148BFEA
:1001A0000B607047642900F0A980632900F0B982D0
:1001B000002070471FB51FBD10B510BD00F026FB15
:1001C0001146FFF7F7FF03F063FF00F044FB03B4B1
:1001D000FFF7F2FF03BC02F016FA0000094880475F
:1001E00009480047FEE7FEE7FEE7FEE7FEE7FEE719
:1001F000FEE7FEE7FEE7FEE704480549054A064B31
:1002000070470000051A000831010008E8010020CD
:10021000E8070020E8030020E8030020704710B53D
:100220004C1084EA530404D54042C1F1000138BFA8
:10023000491E1B4204D55242C3F1000338BF5B1E66
:1002400000F06CF914F0804F04D04042C1F100017D
:1002500038BF491E14F0004F04D05242C3F10003CE
:1002600038BF5B1E10BD00000FB4044910B503AACF
:10027000029800F063FA10BC5DF814FB3400002013
:100280000FB41CB5074B06AA7B446946009005983D
:1002900000F025FA0020694600F034FA1CBC5DF835
:1002A00014FB00007904000070B50C460546012AD5
:1002B00005D02878800600D5EA69002302E00123F2
:1002C00005E05B1C934202D2E05C0028F9D1A869EA
:1002D000E618C01AA861286A184428622846AFF3B5
:1002E000008004E0D5E9012114F8010B9047B442E5
:1002F000F8D32846AFF3008070BD00002DE9F0412F
:100300000646002410687529314616A510D0AFF3B3
:100310000080002802DA404213A507E031688A070E
:1003200001D512A502E0490704D511A5012401E079
:10033000AFF3008000210A2206F1240709E0B0FB98
:10034000F2FCB0FBF2F302FB1C003030785418468C
:10035000491C0028F3D123462A463046BDE8F04127
:1003600000F05EB9000000002D0000002B0000002E
:10037000200000002DE9F05F894604464FF0000A96
:10038000DFF824B1FB44C0F820A02046E16888478C
:1003900000287DD0252806D0D4E901219047206A85
:1003A000401C2062F1E700255F462046E16888474F
:1003B0002028064607DB312E05D2B81910F8200C8C
:1003C00008B10543F1E7A80701D525F00405C4F8F5
:1003D0001CA00027C4F818A02A2E09D0304602F02D
:1003E0000BF938B304EB8708303EC8F8186019E001
:1003F00059F8041B204604EB87029161E1688847A5
:10040000012F064618D1E069002820DA25F02005E2
:100410001DE0D8F8180000EB800006EB40003038F3
:10042000C8F818002046E1688847064602F0E4F85C
:100430000028EED1012F0AD02E2E08D12046E168E7
:1004400088477F1C0646022F45F02005C4DBA069C3
:10045000002803DA404245F00105A061E80701D019
:1004600025F01005A6B1A6F14100192802D82036C2
:1004700045F400654A463146204625604D46FFF763
:1004800091FE60B1012807D0ED1D25F0070000E0C6
:1004900007E000F1080978E705F1040975E730463F
:1004A0007AE7206ABDE8F09FFE93000040EA01036E
:1004B00010B59B070FD1042A0DD310C808C9121F0D
:1004C0009C42F8D020BA19BA884201D9012010BD47
:1004D0004FF0FF3010BD1AB1D30703D0521C07E014
:1004E000002010BD10F8013B11F8014B1B1B07D178
:1004F00010F8013B11F8014B1B1B01D1921EF1D1E9
:10050000184610BD02F0FF0343EA032242EA02420A
:1005100000F028B9704770477047704753EA020CE3
:1005200000F069802DE9F04B4FF00006002B1FBF53
:10053000B3FA83F503FA05F424FA05F65E4012BF18
:100540001643B2FA82F502FA05F4C5F120051EBF82
:1005500022FA05FC44EA0C04203556EA044C4FEA22
:10056000144418BF641C4FF000084FF0000990427B
:1005700071EB030C39D3002919BFB1FA81F701FAE5
:1005800007F6B0FA80F700FA07F6C7F120071EBF9A
:1005900020FA07FC46EA0C062037B6FBF4FCA7EB72
:1005A0000507103F07F01F0BCBF120060CFA0BFBE1
:1005B0002CFA06F644BFB3460026202FA4BF5E46A1
:1005C0004FF0000B5BEA060C08BF4FF0010B19EB74
:1005D0000B09ABFB027C48EB0608C01B06FB02CCF8
:1005E0000BFB03CC71EB0C01C1E70B460246414605
:1005F0004846BDE8F08B13B54FF000004FF0000106
:10060000AFF30080BDE81C40704710B500F0CAF899
:10061000006810BD10B5044600F0C4F8046010BDB9
:100620002DE9F0470D4699469246044600F124080C
:100630000168880604D5E06921F01001216000E01E
:100640000120A84201DD471B00E00027A1697A19BB
:1006500002EB0900081AA0612078C00602D42046E7
:10066000AFF30080002608E0D4E901211AF8060063
:100670009047206A401C761C20624E45F4DB2078AF
:10068000C0060AD52046AFF3008006E0D4E9012178
:1006900030209047206A401C2062381EA7F10107D5
:1006A000F4DC07E0D4E9012118F805009047206A3E
:1006B000401C2062281EA5F10105F3DC2046AFF3A3
:1006C00000802078000602D50220BDE8F0870120D6
:1006D000FBE7000001694A1C02610878704700B519
:1006E0008FB0CDE901310021059105497944CDE96B
:1006F000031011466846FFF73DFE0FB000BD000035
:10070000E5FFFFFF0A6802F8010B0A60704710B5A9
:10071000436913B1AFF3008001E0FFF7C5FD01208D
:1007200010BD127800F124010A7000224A700122E3
:10073000EDE711684FF0FF32E9E70000074B70B5B5
:100740000D467B44FFF7CBFF0446284600F02EF809
:1007500010B14FF0FF3070BD204670BD83320000F5
:100760004FF000020429C0F0128010F0030C00F0DA
:100770002380CCF1040CBCF1020F18BF00F8012B50
:10078000A8BF20F8022BA1EB0C0100F015B85FEA1E
:10079000C17C24BF00F8012B00F8012B48BF00F8F2
:1007A000012B70470048704788010020007B00F053
:1007B000800070474FF0000200B5134694469646FD
:1007C000203922BFA0E80C50A0E80C50B1F1200164
:1007D000BFF4F7AF090728BFA0E80C5048BF0CC012
:1007E0005DF804EB890028BF40F8042B08BF704770
:1007F00048BF20F8022B11F0804F18BF00F8012BE2
:100800007047000000487047880100207546FFF7D8
:10081000F9FFAE4605006946534620F007008546BD
:1008200018B020B5FFF7E8FCBDE820404FF0000607
:100830004FF000074FF000084FF0000B21F00701C8
:10084000AC46ACE8C009ACE8C009ACE8C009ACE80B
:10085000C0098D46704710B50446AFF300802046AE
:10086000BDE81040FFF7B3BC00BFFEE770472DE9BD
:10087000F041024600250026002000230024002726
:1008800091F803C00CF00F0591F803C00CF0100CA8
:10089000BCF1000F03D091F802C04CEA050591F8B5
:1008A00000C0BCF1000F31D0146800202BE04FF0E5
:1008B000010C0CFA00F3B1F800C00CEA03069E42EA
:1008C00020D183004FF00F0C0CFA03F7BC4305FA5C
:1008D00003FC4CEA040491F803C0BCF1280F06D1D4
:1008E0004FF0010C0CFA00FCC2F814C00AE091F8B9
:1008F00003C0BCF1480F05D14FF0010C0CFA00FC0D
:10090000C2F810C0401C0828D1D31460B1F800C050
:10091000BCF1FF0F34DD546800202EE000F1080C1C
:100920004FF0010808FA0CF3B1F800C00CEA030616
:100930009E4221D183004FF00F0C0CFA03F7BC4309
:1009400005FA03FC4CEA040491F803C0BCF1280F3B
:1009500005D100F1080C08FA0CF8C2F8148091F8DF
:1009600003C0BCF1480F07D100F1080C4FF001089B
:1009700008FA0CF8C2F81080401C0828CED3546046
:10098000BDE8F081F0B50A460023002400210025CF
:1009900000F00046B6F1004F02D11D4EF16901E0B2
:1009A0001B4E7168C0F3034583B200F44016B6F5E0
:1009B000401F08D121F07061154E766826F07066F0
:1009C000134F7E6012E000F48016B6F5801F06D14A
:1009D000032606FA05F4A14341F0706106E0460DD6
:1009E000360103FA06F6B14341F0706122B1460DBB
:1009F000360103FA06F6314300F00046B6F1004F27
:100A000002D1034EF16101E0014E7160F0BD0000C2
:100A1000000001400246002093680B400BB101200A
:100A200000E000207047416170470161704700BFDE
:100A3000FEE770B502460024002500230020958AB9
:100A4000138B1B0445EA030626F07F4404EA0106E3
:100A50008E4201D1012000E0002070BD21B102884A
:100A600042F00102028004E002884FF6FE731A4051
:100A70000280704700B585B00121480500F0A8FD4F
:100A80000121082000F0B4FD4020ADF80000032053
:100A90008DF802001C208DF8030069461348FFF70B
:100AA000E6FE8020ADF8000069461048FFF7DFFE43
:100AB0000020ADF808004BF6FF70ADF80A00782072
:100AC000ADF80C004FF48060ADF80E000001ADF8F9
:100AD00010000748019001A9064800F043F80121E1
:100AE0000448FFF7BBFF05B000BD0000000C01404B
:100AF000801A06000054004021B1028842F480723E
:100B0000028004E002884FF6FF631A4002807047BB
:100B100021B1028842F40072028004E002884FF69C
:100B2000FF531A40028070470CB502460020002394
:100B30000193009300920B0F019321F07F41019BE1
:100B40001BB1009B1433009303E0090C009B183386
:100B50000093009B1B680B400BB1012000E00020BC
:100B60000CBD00002DE9F04385B004460D4600267B
:100B7000B1460427DFF8CC80A6884FF6C070064047
:100B8000684600F045FDDDF808802F48B8FBF0F01E
:100B90001FFA80F946EA0906A68020884FF6FE7102
:100BA0000840208000262949286888420CD82868F7
:100BB0004000B8FBF0F087B2042F00DA04273E4370
:100BC00009F10100208427E0E8884BF6FF71884294
:100BD00006D1286800EB4000B8FBF0F087B209E0CE
:100BE000286800EBC00101EB0010B8FBF0F087B201
:100BF00047F48047C7F30B0008B947F0010747F4F3
:100C0000004006434FF4967009FB00F04FF47A71F0
:100C100090FBF1F0401C2084A683208840F0010066
:100C2000208026884FF6F5300640A8886989084359
:100C300006432680A88929890843208105B0BDE89C
:100C4000F083000000127A0040420F00A0860100ED
:100C500012B141F0010102E04FF6FE73194001822A
:100C6000704701827047000070B504460D4600BF12
:100C70004FF400311C48FFF757FF0028F8D101213D
:100C80001948FFF739FF00BF18491748FFF7D1FE91
:100C90000028F9D0002278211348FFF7D9FF00BFC0
:100CA00013491148FFF7C5FE0028F9D021460E4828
:100CB000FFF7D7FF00BF0E49891C0B48FFF7B9FEAD
:100CC0000028F8D029460848FFF7CBFF00BF0849A5
:100CD000891C0548FFF7ADFE0028F8D00121024825
:100CE000FFF716FF70BD0000005400400100030034
:100CF0008200070008B50121142000F079FC0121D1
:100D00001148FFF73FFE4FF40050ADF800004820B7
:100D10008DF8030069460D48FFF7A9FD0220ADF8E4
:100D2000000048208DF8030069460848FFF79FFD42
:100D30000120ADF8000028208DF803006946044822
:100D4000FFF795FD08BD00000002300000100140D3
:100D50000008014010B5044614B101202349087071
:100D60002248007860B302212148FFF753FE58B1B2
:100D70004FF400511E48FFF74DFE28B101211D48D8
:100D8000FFF748FE01281BD10A2001F0EFFF0020E9
:100D90001649087002211648FFF73CFE08B90120E9
:100DA00010BD4FF400511248FFF734FE08B902207D
:100DB000F6E701210F48FFF72DFEA8B90320EFE762
:100DC00002210B48FFF726FE01280DD141030848F8
:100DD000FFF720FE012807D101210648FFF71AFE80
:100DE00010B90120014908700020D9E75400002003
:100DF000001001400008014010B500200E490860B5
:100E00000E48006820F470400C49086008460068ED
:100E100040F44050086000200949C1F8AC0100F0DE
:100E200011F801200449086000F00CF80020044982
:100E3000C1F8A80110BD0000A8812142040C0140A6
:100E40000080214210B5022001F0B6FF10BD000065
:100E500008B50121082000F0CBFB4FF44060ADF84D
:100E6000000010208DF8030003208DF80200694671
:100E70000448FFF7FCFC4FF440610248FFF7D5FD42
:100E800008BD0000000C014010B500200E490860AC
:100E90000E48006820F470400C490860084600685D
:100EA00040F44050086001200949C1F8AC01FFF747
:100EB000C9FF012004490860FFF7C4FF002004496E
:100EC000C1F8A80110BD0000A8812142040C014016
:100ED0000080214270B5054600241648006820F4C1
:100EE0007040144908600846006840F400400860FB
:100EF000002614E0002010490860FFF7A3FF01203E
:100F00000E49C1F8A8016006040E0B487C38006841
:100F100008B1601CC4B2FFF795FF701CC6B2082E62
:100F2000E8DB15B9FFF7B0FF01E0FFF765FF2046EA
:100F300070BD0000040C0140A881214200802142C4
:100F400070B504461248006820F4704010490860EB
:100F50000846006840F44050086000200D490860D1
:100F6000002512E0E0090B49091D08606006040E27
:100F700001200949C1F8A801FFF764FF00200549D5
:100F80000860FFF75FFF681CC5B2082DEADB70BD83
:100F9000040C0140A88121420080214210B50E4876
:100FA000006820F470400C4908600846006840F46E
:100FB000405008600120094908600949C1F8A801AA
:100FC000FFF740FF002005490860FFF73BFF0020C6
:100FD0000349C1F8A80110BD040C0140AC812142B5
:100FE0000080214210B50E48006820F470400C4982
:100FF00008600846006840F4405008600020094935
:1010000008600949C1F8AC01FFF71CFF0120054940
:1010100008600549C1F8AC01FFF714FF10BD0000DE
:10102000040C0140A88121420080214210B5002417
:101030001448006820F470401249086008460068AF
:1010400040F40040086001200F490860FFF7FAFEF5
:1010500001200E49C1F8A801FFF7F4FE07E0601C6B
:10106000C4B2FA2C03DDFFF7BDFF012010BD064816
:10107000803800680028F2D10349091F086000BFCA
:10108000F4E70000040C0140AC81214200802142C1
:1010900038B50121084600F0ABFA0121042000F028
:1010A000A7FA4FF40040ADF8000010208DF80300BF
:1010B00003208DF8020069462248FFF7D8FB012182
:1010C0002148FFF75FFC002020490860FFF7C0FEC1
:1010D00080216B2000F0DDF8642001F047FE002144
:1010E0006B2000F0D6F8032000F091F8002000F00B
:1010F00086F8322000F0B0F80021382000F0C9F85E
:1011000000216A2000F0C5F80021232000F0C1F87A
:101110008021372000F0BDF8752000F019F8044652
:10112000682C0BD101216B2000F0B3F800216C205A
:1011300000F0AFF8322000F08FF801E0012038BD58
:101140000020FCE70008014000023000BC01214201
:1011500070B50446FFF722FFD020FFF7F1FEFFF73E
:1011600065FF2046FFF7ECFEFFF760FFFFF716FF75
:10117000D120FFF7E5FEFFF759FF0020FFF7AAFE99
:101180000546FFF72FFF284670BD2DE9F0410646C2
:101190000F4614461D46FFF701FF002141EA4601B4
:1011A000C8B2FFF7CDFEFFF741FF20B1FFF71AFFEE
:1011B0000120BDE8F0813846FFF7C2FEFFF736FF99
:1011C000FFF7ECFE012101EB4601C8B2FFF7B8FEC4
:1011D000FFF72CFF0DE0012C04D10020FFF77AFE71
:1011E000287003E00120FFF775FE2870601EC4B26E
:1011F0006D1C002CEFD1FFF7F5FE0020D9E710B5EC
:101200000446E006010E1C2000F043F810BD10B5A6
:101210000446E006010E1B2000F03BF810BD70B53F
:1012200004460025BC2C01DB012510E0622C01DB0B
:1012300002250CE02A2C01DB032508E0142C01DB3D
:10124000042504E00A2C01DB052500E006252946DB
:101250001A2000F01EF870BD70B50446B4F57A7F10
:1012600001DD4FF47A74042C00DA04244FF47A7010
:1012700090FBF4F0401EC5B22946192000F009F891
:101280000546264604EBD671C1F34F00FFF7C7FFB2
:1012900070BD70B505460C46FFF780FED020FFF705
:1012A0004FFEFFF7C3FE18B1FFF79CFE012070BD93
:1012B0002846FFF745FEFFF7B9FE2046FFF740FE40
:1012C000FFF7B4FE18B1FFF78DFE0120EFE7FFF73F
:1012D00089FE0020EBE72DE9F04105460E46174652
:1012E0009846FFF75BFE002141EA4501C8B2FFF7CF
:1012F00027FEFFF79BFE20B1FFF774FE0120BDE83B
:10130000F0813046FFF71CFEFFF790FE00240CE052
:1013100018F80400FFF714FEFFF788FE18B1FFF776
:1013200061FE0120EBE7601CC4B2BC42F0DBFFF7BA
:1013300059FE0020E3E700BFFEE7704770B50021CB
:1013400000230F22C47804B3154C246804F4E0642D
:10135000C4F5E064210AC1F10403CA40447804FAE8
:1013600003F184781440214309010E4C0678A155FD
:10137000047804F01F050124AC4005786D11AD0020
:1013800005F1E025C5F8004109E0047804F01F05E7
:101390000124AC40044D0678761145F8264070BD16
:1013A0000CED00E000E400E080E100E002490143D0
:1013B000024A1160704700000000FA050CED00E0E1
:1013C00010B5002000F001F810BD70B506460024ED
:1013D00015E004F1B001C8B201F083F8002001F07B
:1013E00080F8102001F07DF8002504E0304601F07F
:1013F0007FF8681CC5B2802DF8DB601CC4B2082CD5
:10140000E7DB70BD10B54FF47A7001F0AFFCAE2091
:1014100001F067F8202001F064F8102001F061F875
:10142000B02001F05EF8C82001F05BF8002001F068
:1014300058F8102001F055F8402001F052F88120B2
:1014400001F04FF8FF2001F04CF8A12001F049F81D
:10145000A62001F046F8A82001F043F83F2001F053
:1014600040F8A42001F03DF8D32001F03AF8002024
:1014700001F037F8D52001F034F8F02001F031F810
:10148000D92001F02EF8222001F02BF8DA2001F00B
:1014900028F8122001F025F8DB2001F022F82020A6
:1014A00001F01FF88D2001F01CF8142001F019F84C
:1014B000AF2001F016F810BD70B504460D4605F1D9
:1014C000B001C8B201F00DF8102141EA141001F08A
:1014D00008F804F00F0141F0010001F002F870BDBE
:1014E0002DE9F0470646894617469A464FF0000810
:1014F00000240025BAF1010F03D0BAF1020F5ED12A
:1015000025E020E0785D203800F0FF087E2E04DD25
:10151000002609F1010000F0FF0949463046FFF7B7
:10152000CBFF002409E008EB4801264A02EB410109
:10153000085D00F0DDFF601CC4B2062CF3DBB01DBB
:10154000C6B2681CC5B2785D0028DBD137E032E056
:10155000785D203800F0FF08782E04DD002609F1C0
:10156000010000F0FF0949463046FFF7A5FF0024BF
:1015700007E004EB0811144A505C00F0B9FF601C4E
:10158000C4B2082CF5DB09F10100C1B23046FFF707
:1015900093FF002408E004EB081108310A4A505C6C
:1015A00000F0A6FF601CC4B2082CF4DB06F10800B2
:1015B000C6B2681CC5B2785D0028C9D100BF00BFA3
:1015C000BDE8F087666B00088E6D0008704700006C
:1015D00029B1064AD2690243044BDA6104E0034AA6
:1015E000D2698243014BDA6170470000001002406B
:1015F00029B1064A92690243044B9A6104E0034A06
:1016000092698243014B9A617047000000100240CA
:1016100030B500210022002400232D4D6D6805F017
:101620000C0121B1042905D0082923D105E0294D59
:10163000056022E0274D05601FE0254D6D6805F42B
:101640007012234D6D6805F48034022505EB92423B
:101650001CB9214D554305600BE01D4D6D6805F427
:1016600000351DB11C4D5543056002E0194D554331
:10167000056002E0174D056000BF00BF144D6D68A6
:1016800005F0F0010909154D6B5C0568DD4045600A
:101690000F4D6D6805F4E061090A104D6B5C4568FB
:1016A000DD4085600A4D6D6805F46051C90A0B4D37
:1016B0006B5C4568DD40C560054D6D6805F44041D3
:1016C000890B074D6B5CC568B5FBF3F5056130BD53
:1016D0000010024000127A0000093D003A0000208C
:1016E0004A000020704710B500F002F810BD00005D
:1016F0000CB50020019000903348006840F4803021
:101700003149086000BF3048006800F400300090A4
:101710000198401C0190009818B90198B0F5A06F8D
:10172000F1D12948006800F4003010B10120009088
:1017300001E0002000900098012843D12348006870
:1017400040F01000214908600846006820F00300BE
:1017500008600846006840F0020008601A484068C7
:10176000194948600846406848600846406840F4A7
:10177000806048600846406820F47C104860084655
:10178000406840F4E81048600846006840F0807007
:10179000086000BF0C48006800F000700028F9D015
:1017A0000948406820F0030007494860084640683F
:1017B00040F00200486000BF0348406800F00C00A1
:1017C0000828F9D10CBD00000010024000200240A2
:1017D00010B5032000F0CEF80E49098888B201F058
:1017E000C5FA092000F0C6F80A49098888B201F054
:1017F000BDFA0C2000F0BEF80649098888B201F055
:10180000B5FA062000F0B6F80249098888B201F05E
:10181000ADFA10BD5800002010B5032000F0AAF862
:101820000E49098888B201F0A1FA062000F0A2F85A
:101830000A49098888B201F099FA0C2000F09AF858
:101840000649098888B201F091FA092000F092F85F
:101850000249098888B201F089FA10BD58000020B9
:1018600038B501211020FFF7C3FE01210820FFF742
:10187000BFFE10208DF8030002208DF80200002426
:101880000CE00F4830F81400ADF800000D4951F895
:1018900024006946FEF7EBFF601CC4B2042CF0DBA9
:1018A000002409E0064A32F81410064A52F82400CF
:1018B000FFF7B9F8601CC4B2042CF3DB38BD00009C
:1018C00060000020680000202DE9F0411F480068FA
:1018D00008B9BDE8F0811D480068002817DD002424
:1018E00002E0FFF799FF641C1848006804F0E6FE68
:1018F0000746174904F042FF064604F0A3FE051E02
:1019000001DB284600E06842A042EADC16E0002441
:1019100002E0FFF75DFF641C0C48006804F0CEFE97
:1019200007460B4904F02AFF064604F08BFE051E0D
:1019300001DB284600E06842A042EADC00200349BF
:10194000086000F017F800BFC3E700005C0000204B
:10195000610BB63E10B50446204604F073FE014903
:10196000086010BD5C00002001490860704700005D
:101970005800002000F0010119B10121154A116041
:1019800002E00021134A116000F0020121B101219F
:10199000104A121F116003E000210E4A121F11604D
:1019A00000F0040121B101210A4A121D116003E077
:1019B0000021084A121D116000F0080121B1012127
:1019C000044A0832116003E00021024A0832116023
:1019D000704700009C012242042808D14FF0E0210A
:1019E000096941F004014FF0E022116107E04FF076
:1019F000E021096921F004014FF0E02211617047F4
:101A00007047000010B51348006840F0010011490C
:101A1000086008464068104908400E49486008467A
:101A200000680E4908400B4908600846006820F429
:101A3000802008600846406820F4FE0048604FF4AB
:101A40001F008860FFF74FFE4FF0006004490860F8
:101A500010BD0000001002400000FFF8FFFFF6FE7E
:101A600008ED00E0F0B50C46154600220021068C7A
:101A70004FF6FE773E400684028B018C4FF60C76C3
:101A800032407E1C06EA03162E433243104EB0420B
:101A90000ED0104EB0420BD0B0F1804F08D00E4E99
:101AA000B04205D00D4EB04202D00D4EB04206D12C
:101AB0004FF6FD76314044F00106314305E04FF624
:101AC000F576314044F00106314302830184F0BDD4
:101AD000002C014000340140000400400008004098
:101AE000000C0040F0B50C461546002200210026EF
:101AF000078C4FF6EF7C07EA0C070784028B018CFA
:101B00004FF6FF7707EA041640F6FF473A404FF6D4
:101B1000FF7707EA03373A434FF6FF7707EA0527CF
:101B20003A43114FB8420ED0104FB8420BD0B0F12B
:101B3000804F08D00E4FB84205D00E4FB84202D0A9
:101B40000D4FB84206D14FF6DF77394046F0100707
:101B5000394305E04FF65F77394044F010073943C9
:101B600002830184F0BD0000002C014000340140DC
:101B70000004004000080040000C0040F0B50C4696
:101B80001546002200210026078C4FF6FF6C07EA5D
:101B90000C070784828B018C4FF6FF7707EA042637
:101BA0004FF60C773A404FF6FF7707EA03172F43BB
:101BB0003A43114FB8420ED0104FB8420BD0B0F19B
:101BC000804F08D00E4FB84205D00E4FB84202D019
:101BD0000D4FB84206D14FF6FF57394046F4807793
:101BE000394305E04FF2FF57394044F480773943D9
:101BF00082830184F0BD0000002C014000340140CC
:101C00000004004000080040000C0040F0B50C4605
:101C10001546002200210026078C4EF6FF7C07EABD
:101C20000C070784828B018C4FF6FF7707EA043696
:101C300040F6FF473A404FF6FF7707EA05273A4359
:101C40004FF6FF7707EA03373A43114FB8420ED0F9
:101C5000104FB8420BD0B0F1804F08D00E4FB842B1
:101C600005D00E4FB84202D00D4FB84206D14DF606
:101C7000FF77394046F48057394305E047F6FF5770
:101C8000394044F48057394382830184F0BD000019
:101C9000002C0140003401400004004000080040D6
:101CA000000C004030B589B005460C460121C80241
:101CB000FFF79EFC01210420FFF79AFC4FF480708F
:101CC000ADF8200018208DF8230003208DF82200A5
:101CD00008A91848FEF7CBFDADF81850ADF8144030
:101CE0000020ADF81A00ADF8160005A9124800F062
:101CF00093FA6020ADF804000120ADF80600002042
:101D0000ADF80A00ADF80C0001A90B4800F0EAF9A3
:101D10000121094800F05FF90821074800F037FA6F
:101D20000121054800F0C0F80121034800F047F9FF
:101D300009B030BD00080140002C014010B55548E5
:101D4000007800F0800000284CD10121524800F0BA
:101D500057F9D0B14F48007800F04000A8B14D4885
:101D6000007800F03F003F280AD14A48007840F050
:101D70008000484908704FF6FF704849088004E029
:101D800044480078401C434908700221424800F052
:101D900037F938B33F48007800F0400078B13D484B
:101DA000007840F080003B4908703B4800F022F981
:101DB0003A4908800021384800F0E0F912E000209C
:101DC00034490870354908800021334800F0F5F99E
:101DD0003048007840F040002E49087002212E481B
:101DE00000F0CCF92E48007800F0800000284CD19B
:101DF0000121294800F004F9D0B12948007800F009
:101E00004000A8B12648007800F03F003F280AD1E2
:101E10002348007840F08000214908704FF6FF7099
:101E20002049088004E01E480078401C1C490870C6
:101E30000421194800F0E4F838B31948007800F09C
:101E4000400078B11648007840F0800014490870CE
:101E5000114800F0D2F81349088000210E4800F024
:101E60009FF912E000200E4908700E4908800021F9
:101E7000094800F0A2F90A48007840F040000849FB
:101E800008700221044800F08BF90721024800F095
:101E900093F810BD4E000020000C004050000020C0
:101EA0004F0000205200002021B1028842F0800241
:101EB000028004E002884FF67F731A400280704768
:101EC00030B589B005460C4601210820FFF780FB9C
:101ED00001210520FFF78CFB0120ADF82000282010
:101EE0008DF8230008A93248FEF7C1FC01213048D3
:101EF000FEF799FD0220ADF8200028208DF8230080
:101F000008A92B48FEF7B3FC02212948FEF78BFDF8
:101F1000ADF81850ADF814400020ADF81A00ADF837
:101F2000160005A9234800F077F90020ADF8040059
:101F3000ADF806000120ADF808000020ADF80A0059
:101F4000ADF80C0001A91B4800F06CF80420ADF8B6
:101F500004000020ADF806000120ADF808000020C4
:101F6000ADF80A00ADF80C0001A9124800F05AF8CB
:101F700032208DF8100002208DF8110000208DF81D
:101F8000120001208DF8130004A8FFF7D7F90122F1
:101F90000321084800F09CF801220521054800F0C3
:101FA00097F80121034800F00AF809B030BD00009D
:101FB00000080140000C0040CA430282704721B172
:101FC000028842F00102028004E002884FF6FE73AC
:101FD0001A400280704731B1B0F8442042F4004208
:101FE000A0F8442005E0B0F84420C2F30E02A0F8A7
:101FF000442070470146888E70470146088F70471D
:1020000030B50246002000230024158A05EA0103AA
:10201000958905EA010413B10CB1012000E000200C
:1020200030BD000070B505460C46244885420ED0F0
:10203000234885420BD0B5F1804F08D02148854216
:1020400005D02148854202D02048854200D100E0D9
:1020500000BF208850B92389A28861882846FFF7ED
:1020600001FDE188284600F0AAF825E02088042830
:102070000AD12389A28861882846FFF733FDE188C9
:10208000284600F0A5F817E0208808280AD12389FF
:10209000A28861882846FFF771FDE188284600F094
:1020A000A4F809E02389A28861882846FFF7AEFDDD
:1020B000E188284600F0A2F870BD0000002C014025
:1020C000003401400004004000080040000C0040C3
:1020D0001AB183890B43838102E083898B43838117
:1020E0007047000070B5002400220023058C4FF6D5
:1020F000FE7635400584028C8388048B4FF68F75FD
:102100002C40B51E2C400D882C43751E2A400D898D
:102110002A434D882A43144DA8420BD0134DA842A0
:1021200008D0134DA84205D0124DA84202D0124D3E
:10213000A84213D14FF6F7752A404D892A434FF62E
:10214000FB752A408D882A434FF6FF652B404FF6DA
:10215000FF552B408D892B43CD892B4383800483EE
:10216000CD888586028470BD002C0140003401407A
:102170000040014000440140004801400A4600215F
:10218000018C4FF6FD7319401143018470470A46D4
:102190000021018B4FF6F7731940114301837047FB
:1021A0000A460021018C4FF6DF7319404FF6FF738A
:1021B00003EA021319430184704781847047028B3C
:1021C0004FF6F3731A400283028B0A43028370476F
:1021D000028B4FF2FF331A400283028B4FF6FF73DC
:1021E00003EA01231A4302837047828B4FF6F3738D
:1021F0001A408283828B0A4382837047828B4FF21C
:10220000FF331A408283828B4FF6FF7303EA012368
:102210001A43828370470000002202881D4B9842B7
:102220000ED01D4B98420BD0B0F1804F08D01B4B05
:10223000984205D01A4B984202D01A4B984204D1CA
:102240004FF68F731A404B881A43174B984207D0AA
:10225000164B984204D04FF6FF431A40CB881A43DE
:1022600002808B8883850B8803850A4B98420BD0AC
:10227000094B984208D00E4B984205D00D4B98421E
:1022800002D00D4B984201D10B7A03860123838241
:1022900070470000002C0140003401400004004061
:1022A00000080040000C00400010004000140040F6
:1022B00000400140004401400048014010B540F298
:1022C00025511D4800F04AF810B31B4800F002F9F0
:1022D000C4B21A48008800F40040C8B91748008802
:1022E00000F4804060B10A2C03D00020134908801C
:1022F00020E01248008840F400401049088019E0AE
:102300000D2C06D10D48008840F480400B49088010
:1023100010E00A480088C0F30D0009490C54074832
:102320000088401C0549088008460088C72801DD50
:102330000020088010BD0000003801403800002057
:10234000B000002021B1828942F40052828104E071
:1023500082894DF6FF731A408281704770B502463C
:10236000002400230025002040F66A16B14200D167
:1023700000BFC1F3421501F01F03012606FA03F363
:10238000012D02D19689334006E0022D02D1168A32
:10239000334001E0968A33400C12012606FA04F419
:1023A0001688344013B10CB1012000E0002070BD4C
:1023B000F0B50346002400260025002040F66A17E9
:1023C000B94200D100BF1846C1F3421401F01F0604
:1023D000012707FA06F5012C01D10C3004E0022C8C
:1023E00001D1103000E014301AB107682F430760A4
:1023F00002E00768AF430760F0BD00002DE9F04739
:1024000086B005460E460024A24600BFA14600271E
:10241000B08900B100BF2F462C8A4CF6FF700440F3
:10242000F08804432C82AC894EF6F3100440B08847
:1024300031890843718908430443AC81AC8A4FF663
:10244000FF400440B0890443AC8201A8FFF7E0F8E4
:102450001F48874202D1DDF810A001E0DDF80CA092
:10246000A88900F4004040B10AEBCA0000EB0A1052
:1024700031684900B0FBF1F807E00AEBCA0000EB55
:102480000A1031688900B0FBF1F86420B8FBF0F065
:1024900004012009642101FB1089A88900F400408F
:1024A00040B1322000EBC900B0FBF1F000F00700B2
:1024B000044308E0322000EB09106421B0FBF1F086
:1024C00000F00F0004432C8106B0BDE8F087000047
:1024D0000038014001468888C0F30800704700BFFB
:1024E000FEE710B5044621460020FEF7BDFB10BDF7
:1024F00010B5044621464020FEF7B6FB10BD49004A
:1025000050EAC12018BF04204A0D18BF40F0010056
:1025100040F2FF72B2EB515F08BF40F002000128A9
:1025200008BF052070472DE9F0414F1E00EBC701A1
:102530000446D1E9000115461E4637F006020DD0CB
:102540002A46334603F014FC7F1E04EBC703D3E98D
:10255000002303F0F1F937F00602F1D1022F25D064
:10256000042F13D0062F18BFBDE8F0812A4633464A
:1025700003F0FEFBD4E90A2303F0DEF92A463346D2
:1025800003F0F6FBD4E9082303F0D6F92A463346D4
:1025900003F0EEFBD4E9062303F0CEF92A463346D6
:1025A00003F0E6FBD4E9042303F0C6F92A463346D8
:1025B00003F0DEFBD4E9022303F0BEF92A463346DA
:1025C00003F0D6FBD4E90023BDE8F04103F0B4B931
:1025D000012204F082BA03F0AFB90022134610467C
:1025E000114603F059BA0000024A0020110704F016
:1025F00074BA000001FDFFFF30380A2801D2012023
:10260000704700207047014600BF70472DE9FE4F1C
:1026100006460F460025684601F0E4F9002442E032
:1026200056F8240057F82410A0EB010ABAF1000F65
:1026300001DB514601E0CAF10001084604F03EF812
:1026400083464FF08F4103F007FF80465DF824007A
:10265000002103F0C3FF16D05DF82410404603F0BC
:10266000FBFE82464FF07E5104F090F9814629F03E
:10267000004A0F48416A504604F04CF912D201203A
:10268000A04005430EE00A48C169404604F042F804
:1026900005D30748016A404604F03CF902D2012004
:1026A000A0400543641C032CBADB2846BDE8FE8F1E
:1026B000688B00082DE9F04D8D4F21F0004A86B05F
:1026C00005460C46BA452ADBAAEB070028430AD088
:1026D0008848824501DC1AD1CDB106B02846BDE854
:1026E000F04DFFF775BF844A844B284603F040FB4A
:1026F00007460E46824A834B2846214603F038FBA4
:1027000006B03A463346BDE8F04D03F015B9012056
:10271000FDF780FF06B0BDE8F04DFFF75EBF7A48D9
:10272000824542DABAF1795F0BDA2846FFF7E7FE15
:10273000042808BFFFF758FF284606B02146BDE829
:10274000F08D2A460B46104603F012FB83460246E4
:102750006E480E460B4606217844FFF7E4FE5A46C3
:10276000334603F005FB804669488A465A4633469D
:1027700004217844FFF7D7FE5A46334603F0F8FAAF
:1027800000223B4603F0D8F802460B46404651462D
:1027900003F082F92A46234603F0EAFA06B02A46F5
:1027A0002346BDE8F04D03F0C7B8284624F00041A9
:1027B00000223D463B4603F0D9FB4FF0FF3204F0C8
:1027C0008CF90646024653480F460B4606217844CC
:1027D000FFF7A9FE32463B4603F0CAFACDE90001F5
:1027E0004D4832463B4604217844FFF79CFE324672
:1027F0003B4603F0BDFA00222B4603F09DF88346CA
:1028000002913046394602F0C1FF804643480D46EA
:10281000504517DCDDE900015A46029B03F03CF904
:1028200042462B4603F0A4FA42462B4603F084F8B6
:10283000012204F052F9304A304B03F089FC304A4F
:10284000304B4CE04FF0000A52460B46404603F036
:1028500073F8CDE9031052462B461046194603F093
:1028600087FA32463B4603F081FBDDE9033203F091
:1028700013F906460F46DDE900015A46029B03F0B4
:102880000BF98346009101223046394604F025F9C0
:10289000194A1A4B03F06AFB06460F4601224046CE
:1028A000294604F01AF95A46009B03F061FA3246B1
:1028B0003B4603F04DFC06460F4601225046294692
:1028C00004F00BF90E4DDFF858802A46434603F01A
:1028D0004DFB32463B4603F049FB2A46434603F094
:1028E00045FB002CD8BF81F0004106B0BDE8F08D5B
:1028F0000000F03F0000F07F075C143326A6913CF7
:10290000182D4454FB21F93F0000E03F3C700000CB
:1029100052700000C66F0000DC6F00003333EF3FE1
:10292000FB21E93F2DE9F84F04460D4621F0004018
:1029300000917349814211DC7249884201DC06D161
:102940002CB120462946BDE8F84FFFF741BE6E483E
:10295000002DCCBF6D496E49BDE8F88F6D498142AD
:1029600011DD6D498142D8BF4FF0FF366DDD204645
:102970002946FFF7C4FD042808BFFFF735FE2046AF
:102980002946BDE8F88F6549654F25F0004581422D
:1029900033DD6449814219DD002632464FF0804321
:1029A0002046294602F0C8FF80468A46012220467A
:1029B000294604F092F800223B4603F0C9FB424648
:1029C000534603F069F804460D463EE00126002216
:1029D000BA463B462046294602F0AEFF80460F46E7
:1029E000002253462046294603F0B2FB42463B46AE
:1029F00003F052F804460D4627E04B4981421BDDA7
:102A0000DFF828A10226002253462046294603F07B
:102A1000AFF900223B4602F08FFF80460F460022AE
:102A200053462046294603F093FB42463B4603F0BB
:102A300033F804460D4608E0032622462B460020C4
:102A40003B4903F029F804460D4622462B46104622
:102A5000194603F08DF98B46824602460B4603F079
:102A600087F907460246334888460B4606217844D4
:102A7000FFF759FD52465B4603F07AF982462E482D
:102A80008B463A46434605217844FFF74CFD3A46CB
:102A9000434603F06DF902460B46002E5046594658
:102AA0000CDA02F049FF22462B4603F061F901B02F
:102AB00022462B46BDE8F04F03F058BA02F03CFF27
:102AC00022462B4603F054F91C4A7A4402EBC60313
:102AD000D3E9002303F03CFB22462B4603F038FBEE
:102AE000174A7A4402EBC603D3E9002303F03EFA07
:102AF000009A002AB8BF81F00041BDE8F88F0000BD
:102B0000000010440000F07F182D4454FB21F93FD1
:102B1000FB21F9BF0000DC3F0000203E0000F33F36
:102B20000000F03F0000E63F008003400000F83F57
:102B30000000F0BFDE6D00009C6D00003A6D0000EB
:102B4000026D00002DE9F04D9446CCF1000423F015
:102B500000464CEA0404524F46EAD4749A4688462A
:102B600021F00042BC4206D8454240EA050442EA50
:102B7000D474BC4204D9BDE8F04D6246FFF72BBDCA
:102B8000AAF14055A5F17F6555EA0C040BD002244B
:102B900004EAAA74434DDFF810E144EAD87452EA1B
:102BA000000B04D00CE0BDE8F04DFFF7BBBE002CDD
:102BB00014BF012CBDE8F08D022C30D0032C32D094
:102BC00056EA0C0B0AD0BE4220D1BA4209D126F0F7
:102BD000804622F080423346114617E000291ADB76
:102BE00025E0DFF8C8B0FB44002C04BFDBE900019E
:102BF000BDE8F08D012C02BFDBE9000181F000414E
:102C0000BDE8F08D022C0AD0032C0CD0BA4212D1B0
:102C1000B8F1000F0BDA23482549BDE8F08D2846AE
:102C20002449BDE8F08D28467146BDE8F08D1D4869
:102C30002149BDE8F08D921B12153C2AC4BF1948EA
:102C40001D490EDCBAF1000FBEBF12F13C0F00208F
:102C5000014606DB624602F01FFF21F00041FFF74C
:102C600061FE002C08BFBDE8F08D012C04BF81F08F
:102C70000041BDE8F08D114A114B022C07D003F042
:102C800067FA2A46BDE8F04D0A4B03F061BA03F03B
:102C90005FFA2A46BDE8F04D064B03F067B9000025
:102CA0000000F07F182D4454FB2109C0966C0000F1
:102CB000FB21F9BFFB210940FB21F93F075C1433DD
:102CC00026A6A13C2DE9F0410446E07800F0C006BC
:102CD000E07800F03F05607800F0010098B1EF1057
:102CE0002846E91705EB5171C910A5EBC101491C34
:102CF00001F0FF080B48006820B10A48414602680D
:102D00003846904700BF607800F0080030B10548B1
:102D1000406818B1B011034A516888470020BDE8E7
:102D2000F08100007801002010B56FF00400FEF77C
:102D300053FE0A4800680A49B0FBF1F009490870DF
:102D40000846007800EB4001C1EBC0104FF6FF7160
:102D500001EAC0000449088010BD00001C000020EA
:102D600000127A0030000020320000200146114A93
:102D700012884A434FF0E0235A6100229A611A46B2
:102D8000126942F001021A6100BF4FF0E02210699F
:102D900000F001021AB100F48032002AF5D04FF0A1
:102DA000E022126922F001024FF0E0231A610022B2
:102DB0009A617047320000200146114A12784A4356
:102DC0004FF0E0235A6100229A611A46126942F0DC
:102DD00001021A6100BF4FF0E022106900F0010209
:102DE0001AB100F48032002AF5D04FF0E0221269C7
:102DF00022F001024FF0E0231A6100229A6170472D
:102E00003000002038B5044664B120208DF8000061
:102E100028208DF8010030208DF8020038208DF830
:102E2000030004E0A32204216846FDF76BFB6A4619
:102E3000042140F69E2002F059FB01F043FF38BD0B
:102E40003EB5044602208DF80000CA208DF801002E
:102E5000E3208DF8020009208DF803006A46042162
:102E6000682002F043FBA3208DF8000004F040002E
:102E700048B1C0208DF80100C8208DF80200C220A2
:102E80008DF8030006E0A3208DF801008DF8020004
:102E90008DF8030004F4C07048B1C4208DF804001C
:102EA000CC208DF80500C6208DF8060006E0A32092
:102EB0008DF804008DF805008DF80600A3208DF82C
:102EC00007008DF808008DF809006A460A2140F6CF
:102ED000A72002F00BFB04F0030018B120208DF8AE
:102EE000000002E0D8208DF800006A46012140F67B
:102EF000B62002F0FBFA04F0200018B1012000F027
:102F0000ADF802E0002000F0A9F804F4C07008B3A6
:102F100004F4807060B1B2208DF800008B208DF831
:102F20000100B6208DF802009B208DF803000BE015
:102F3000B0208DF8000080208DF80100B4208DF8BD
:102F4000020090208DF803006A46042140F6A2207A
:102F500002F0CCFA04F0010020B3F8208DF8000054
:102F60006A4601214FF40B6002F0C0FAFA210720F3
:102F700000F02CFC072000F0F3FB012000F013FC14
:102F8000642000F0F3FC4FF4FA7000F002FDC82159
:102F9000304800F0A3FB282000F0BCFB0A2000F022
:102FA000CCFB08E0D8208DF800006A4601214FF4E0
:102FB0000B6002F09BFA04F0020018B1D9208DF8E2
:102FC000000002E0D8208DF800006A46012140F29E
:102FD0003D7002F08BFA04F0040018B1012000F0FB
:102FE00069F802E0002000F065F804F0100018B164
:102FF0000120FFF707FF02E00020FFF703FF44F086
:1030000008001549488101F05DFE002012498873CF
:1030100004F0400018B10846807B801D887304F4DA
:10302000C07020B10C48807B801D0B49887304F070
:10303000140020B10848807B10300749887304F0E1
:10304000030020B10448807B001D034988730020E1
:103050003EBD000009E3CA02780100203EB50446E7
:103060006CB10EA1D1E900208968CDE90020029160
:103070006A4609214FF4976002F038FA3EBD0AA271
:10308000D2E900109268CDE9010200916A46092157
:103090004FF4976002F02AFAF0E70000B8AAB38D67
:1030A000B4980D355D000000B8AAAAAAB088C3C5BF
:1030B000C700000038B5044664B1C0208DF8000098
:1030C000C2208DF80100C4208DF80200C6208DF8C2
:1030D000030004E08B2204216846FDF713FA6A46D8
:1030E000042140F6982002F001FA01F0EBFD38BD12
:1030F00010B5C8234FF48062024940F6F63001F063
:1031000075FC10BD908B00082DE9F04F8DB007467F
:10311000884615469946DDE9166B0024002030806C
:103120006B49887B5A4605A901F02CFD18B1601E39
:103130000DB0BDE8F08F6648807A00F014000028DA
:1031400067D09DF8140000069DF8151040EA014074
:103150009DF8161040EA01209DF8171008432860DA
:103160009DF8180000069DF8191040EA01409DF8EE
:103170001A1040EA01209DF81B10084368609DF872
:103180001C0000069DF81D1040EA01409DF81E102D
:1031900040EA01209DF81F100843A8609DF8200018
:1031A00000069DF8211040EA01409DF8221040EAF7
:1031B00001209DF823100843E86004F11000C4B218
:1031C000286800140190686800140290A868001430
:1031D0000390E8680014049001984043029901FBB1
:1031E0000100039901FB0100049901FB010ABAF1F6
:1031F000706F02DBBAF1885F05DD01F063FD00202E
:103200003080401E94E7B6F9000040F480703080B2
:1032100000BF2F48807A00F0400020B305A9601C51
:10322000085C095D40EA012000B2A8F8000005A989
:10323000E01C095C05AAA01C105C41EA002000B259
:10324000A8F8020005A9601D095C201D105C41EA78
:10325000002000B2A8F80400A01DC4B2B6F9000016
:1032600040F0080030801A48408900F4C07008B36C
:1032700005A9601C085C095D40EA012000B23880A5
:1032800005A9E01C095C05AAA01C105C41EA00200D
:1032900000B2788005A9601D095C201D105C41EA20
:1032A000002000B2B880A01DC4B2B6F9000040F002
:1032B000700030800648807A00F0030018B105A93C
:1032C0000819FFF7FFFC484601F02CF800202FE713
:1032D0007801002070B588B0064601A801F0E6F933
:1032E000BDF804000021C90341EA5045C403444825
:1032F000007A00F0030056F8200005904048007A5C
:1033000000F0040010B10598404205903C48007A56
:10331000C0F3C10056F8200006903948007A00F04A
:10332000200010B10698404206903548007AC0F35C
:10333000811056F8200007903148008900F4807011
:1033400010B10798404207900598C117A0FB0423CD
:1033500001FB043100FB0510810041EA92700590E9
:103360000698C117A0FB042301FB043100FB0510E4
:10337000810041EA927006900798C117A0FB0423D0
:1033800001FB043100FB0510810041EA92700790B7
:103390000598000E8DF808000598000C8DF80900BE
:1033A0000598000A8DF80A000598C0B28DF80B0048
:1033B0000698000E8DF80C000698000C8DF80D0094
:1033C0000698000A8DF80E000698C0B28DF80F001E
:1033D0000798000E8DF810000798000C8DF811006A
:1033E0000798000A8DF812000798C0B28DF81300F4
:1033F00002AA0C214FF4257002F078F808B070BDD5
:103400007801002030B585B0044616A207CA02AB89
:1034100007C3C82C03DD4FF0FF3005B030BDC82016
:1034200090FBF4F0401E85B2280A8DF80000E8B247
:103430008DF801006A46022140F2162002F056F88B
:1034400010B14FF0FF30E8E702AA0C2140F6C1208E
:1034500002F04CF810B14FF0FF30DEE704488481F1
:103460000020DAE7FEF2ABC4AAF1DFDFBBAFDFDF9B
:10347000780100201FB504464848007A00F0030098
:1034800054F8200001904548007A00F0040010B183
:103490000198404201904148007AC0F3C10054F8BD
:1034A000200002903D48007A00F0200010B1029800
:1034B000404202903948007AC0F3811054F820004D
:1034C00003903648008900F4807010B103984042A0
:1034D00003903349019880FB0101800F40EA81008D
:1034E00001902F49029880FB0110820042EA9170FE
:1034F00002902B49039880FB0110820042EA9170F0
:1035000003900198000E8DF800000198000C8DF8D2
:1035100001000198000A8DF802000198C0B28DF8F0
:1035200003006A4604214FF4747001F0DFFF18B104
:103530004FF0FF3004B010BD0298000E8DF800006F
:103540000298000C8DF801000298000A8DF8020024
:103550000298C0B28DF803006A4604214FF47570DA
:1035600001F0C4FF10B14FF0FF30E3E70398000E05
:103570008DF800000398000C8DF801000398000AF4
:103580008DF802000398C0B28DF803006A4604214A
:103590004FF4767001F0AAFFCCE70000780100201C
:1035A00009E3CA0210B586B0044647A0006803903C
:1035B00046A00068029046A00068019045A00068FF
:1035C000009004F0030003A9085C8DF8140003A820
:1035D000C4F3C101405C8DF8150003A8C4F3811148
:1035E000405C8DF8160004F0030002A9085C8DF819
:1035F000100002A8C4F3C101405C8DF8110002A8BC
:10360000C4F38111405C8DF8120005AA032140F239
:10361000264001F06BFF18B14FF0FF3006B010BD2F
:1036200004AA032140F22A4001F060FF10B14FF0DC
:10363000FF30F3E7019805900098049004F004002F
:1036400058B19DF8140040F001008DF814009DF869
:10365000100040F001008DF8100004F0200058B177
:103660009DF8150040F001008DF815009DF811003F
:1036700040F001008DF8110004F4807058B19DF8FD
:10368000160040F001008DF816009DF8120040F081
:1036900001008DF8120005AA03214FF4886001F0A3
:1036A00025FF10B14FF0FF30B8E704AA032140F224
:1036B000314001F01BFF10B14FF0FF30AEE706487C
:1036C00004810020AAE700004CCD6C000CC92C003E
:1036D000365676002646660078010020F8B5054685
:1036E0000E464FF47A7095FBF0F000FB06F4200EC6
:1036F0008DF80000200C8DF80100200A8DF80200E2
:10370000E0B28DF803006A4604214FF4AE7001F078
:10371000EDFEF8BD38B50446052094FBF0F084B208
:1037200020128DF80000E0B28DF801006A460221F7
:103730004FF4AD7001F0DAFE38BD38B5044605200F
:1037400094FBF0F084B220128DF80000E0B28DF806
:1037500001006A4602214FF4AC7001F0C7FE38BD8B
:1037600038B504460020009004F0010020B19DF817
:10377000000040F03000009004F0020020B19DF8FD
:10378000000040F00C00009004F0040020B19DF80F
:10379000000040F0030000906A4601214FF4A4703D
:1037A00001F0A4FE38BD38B50446012C01DA01242D
:1037B00002E0042C00DD0424601EC0B200906A46C2
:1037C000012140F24F1001F091FE38BD2DE9FC4778
:1037D00006460F4606F0070010B1B7F5C86F03DDC7
:1037E0004FF0FF30BDE8FC87384602F07FFF81468E
:1037F000594902F031FE8046684600F031FF9DF8DD
:103800000000022806D0042816D0082826D0102848
:1038100048D135E04FF08D41404602F0AFFF814680
:1038200002F02CFF84B24D49404602F0A7FF8146CA
:1038300002F024FF85B238E04FF08C41404602F0A0
:103840009DFF814602F01AFF84B24549404602F0CE
:1038500095FF814602F012FF85B226E04FF08B41C2
:10386000404602F08BFF814602F008FF84B23D49DA
:10387000404602F083FF814602F000FF85B214E06B
:103880004FF08A41404602F079FF814602F0F6FE91
:1038900084B23549404602F071FF814602F0EEFEE7
:1038A00085B202E04FF0FF309CE700BF20128DF898
:1038B0000400E0B28DF8050028128DF80600E8B289
:1038C0008DF8070006F00100A0B101AA02214FF413
:1038D000EA7001F00BFE10B14FF0FF3082E70DF1FE
:1038E000060202214FF4927001F000FE10B14FF079
:1038F000FF3077E706F00200A0B101AA02214FF4E1
:10390000EC7001F0F3FD10B14FF0FF306AE70DF1FC
:10391000060202214FF4947001F0E8FD10B14FF05F
:10392000FF305FE706F00400A0B101AA02214FF4C6
:10393000EE7001F0DBFD10B14FF0FF3052E70DF1FA
:10394000060202214FF4967001F0D0FD10B14FF045
:10395000FF3047E7002045E70000484300004046AD
:103960000000C045000040450000C04438B5044692
:10397000052094FBF0F085B228128DF80000E8B223
:103980008DF801006A4602214FF4EF7001F0AEFDA0
:1039900038BD38B50446052094FBF0F085B22812F6
:1039A0008DF80000E8B28DF801006A4602214FF45C
:1039B000ED7001F09BFD38BD0146002901DD084690
:1039C00070474842FCE7000000BF054A128802F039
:1039D0004002002AF9D0C2B2014B1B1D1A80704769
:1039E000003801407CB5054628494968087801AB94
:1039F00004220D21FDF7C9FB08B107207CBD9DF80D
:103A00000700C0F301109DF8041001F0E00140EA46
:103A1000E1008DF800009DF80700C0F381009DF8DB
:103A2000051001F0E00140EAE1008DF801009DF889
:103A3000070000F003009DF8061001F0E00140EAE5
:103A4000E1008DF8020000241CE01DF8040018B904
:103A5000002045F8240013E00D4845F8240006E056
:103A600055F824000B4902F089FE45F824001DF8A2
:103A70000400401EC0B20DF804000028F0D100BFC1
:103A8000601CC4B2032CE0DB0020B7E77800002004
:103A90007B14AE3E1D5A843F2DE9F04F87B005469A
:103AA0000C46914601208DF8100000208DF8110081
:103AB000FE4A1268917CFD4A5268107804AB0222DB
:103AC000FDF709FC20B14FF0FF3007B0BDE8F08FE3
:103AD000C820FFF74BF900208DF81000F34A126858
:103AE000D17BF24A5268107804AB0122FDF7F3FB58
:103AF00010B14FF0FF30E8E7EC4A12685179EB4A19
:103B00005268107804AB0122FDF7E5FB10B14FF0CD
:103B1000FF30DAE7E54A1268917CE44A526810788F
:103B200004AB0122FDF7D7FB10B14FF0FF30CCE71B
:103B3000DE4A1268D17DDD4A5268107804AB01225A
:103B4000FDF7C9FB10B14FF0FF30BEE7D74A12684E
:103B50001179D64A5268107804AB0122FDF7BBFBFD
:103B600010B14FF0FF30B0E70C208DF81000CF4AB5
:103B700012681179CD4A5268107804AB0122FDF722
:103B8000AAFB10B14FF0FF309FE70F20FFF7EEF8D0
:103B9000C648806A407A8DF81000C44A126891784D
:103BA000C24A5268107804AB0122FDF794FB10B1B1
:103BB0004FF0FF3089E7BD48806A007A8DF8100029
:103BC000BA4A12685178B94A5268107804AB012297
:103BD000FDF781FB10B14FF0FF3076E7B9F1000F30
:103BE00007D0B248806A807A40F0E0008DF810007B
:103BF00004E0AE48806A807A8DF81000AB4A126803
:103C00009179AA4A5268107804AB0122FDF763FB50
:103C100010B14FF0FF3058E7B9F1000F07D0A348BB
:103C2000806AC07A40F0E0008DF8100003E0A04800
:103C3000C07A8DF810009D4A1268D1799B4A52686B
:103C4000107804AB0122FDF746FB10B14FF0FF30B6
:103C50003BE7B9F1000F02D0C820FFF787F84020FA
:103C60008DF81000914A12681179904A52681078C4
:103C700004AB0122FDF72FFB10B14FF0FF3024E71A
:103C800078208DF81000894A12685179874A526865
:103C9000107804AB0122FDF71EFB10B14FF0FF308E
:103CA00013E783498889FFF761F800208DF8100039
:103CB0007E4A126851797D4A5268107804AB01221D
:103CC000FDF709FB10B14FF0FF30FEE6774A1268AE
:103CD000917A764A5268107804AB0222FDF755FAC1
:103CE00010B14FF0FF30F0E69DF811009DF8101074
:103CF00040EA012B0C209BFBF0F0C6B20020A8602C
:103D000068602860A06060602060824665E0674A65
:103D10001268D17A654A5268107804AB0C22FDF71C
:103D200034FA10B14FF0FF30CFE69DF811009DF846
:103D3000101040EA012000B2ADF808009DF8130011
:103D40009DF8121040EA012000B2ADF80A009DF87B
:103D500015009DF8141040EA012000B2ADF80C00E7
:103D6000BDF90810206808442060BDF90A10606899
:103D700008446060BDF90C10A0680844A0609DF87C
:103D800017009DF8161040EA012000B2ADF80000BF
:103D90009DF819009DF8181040EA012000B2ADF816
:103DA00002009DF81B009DF81A1040EA012000B2A5
:103DB000ADF80400BDF90010286808442860BDF97A
:103DC0000210686808446860BDF90410A8680844D7
:103DD000A8600AF1010000F0FF0AB24597DB344801
:103DE000D0F800C02868C117090441EA104107044F
:103DF000624600233846FCF712FA32460023CDE92A
:103E00000201FCF70CFA28602948D0F800C0686865
:103E1000C117090441EA10410704624600233846ED
:103E2000FCF7FDF932460023CDE90201FCF7F7F972
:103E300068601F48D0F800C0A868C117090441EAAB
:103E400010410704624600233846FCF7E8F9324681
:103E50000023CDE90201FCF7E2F9A8601448D0F88C
:103E600004C02168C817000440EA11480F046246E4
:103E7000002338464146FCF7D2F932460023CDE90B
:103E80000201FCF7CCF920600948D0F804C0606852
:103E9000C117090441EA104107046246002338466D
:103EA000FCF7BDF93246002304E000007800002052
:103EB000688B0008CDE90201FCF7B1F96060114898
:103EC000D0F804C0A068C117090441EA10410704F2
:103ED000624600233846FCF7A2F932460023CDE9BA
:103EE0000201FCF79CF9A060A068002804DDA0682E
:103EF000A0F58030A06003E0A06800F58030A060ED
:103F00000020E2E5688B00082DE9FC5F06460F46BD
:103F100000253D494968087801AB03220D21FDF7D2
:103F200034F910B10720BDE8FC9F9DF8040000F0B3
:103F30001F008DF804009DF8050000F01F008DF8AB
:103F400005009DF8060000F01F008DF80600002413
:103F500056E056F8240057F82410A0EB010BBBF1F3
:103F6000000F01DB594601E0CBF10001084602F0E9
:103F7000A5FB4FF08F41009002F06EFA814601A838
:103F8000005D68B32149086802F0B0FB83465946DA
:103F90001F4802F061FA804604E01E49404602F0E4
:103FA000EDFB804601A8005D401EC0B201A9085586
:103FB0000028F2D14146484602F04EFA83464FF0BF
:103FC0007E5102F0E3FC82462AF0004B0F488169E3
:103FD000584602F09FFC12D20120A04005430EE09B
:103FE0000A480169484602F095FB05D30748416934
:103FF000484602F08FFC02D20120A0400543641C19
:10400000032CA6DB28468EE778000020688B00088A
:1040100000B04C4554E3853F10B50446204600F0FF
:104020000FF80346E01C00F00BF843EAC00083B22F
:10403000A01D00F005F843EA801083B2184610BDB9
:10404000014691F90020002A01DD00201EE091F9CF
:104050000020002A01DA042018E091F90120002A4A
:1040600001DD012012E091F90120002A01DA05208A
:104070000CE091F90220002A01DD022006E091F90E
:104080000220002A01DA062000E007207047000025
:104090008CB00024002500200A90804600BF4FF419
:1040A000E13001F0C7FBFEF73FFE4FF4A060FDF7E3
:1040B0007DF901F091FB47214FF6FF70FDF700FFFE
:1040C000FCF718FEFCF7D6FCFCF7E2FFFDF79AF9C7
:1040D000FDF776F975A0FCF7C7F808E074A0FCF7C7
:1040E000C3F8022374A203210520FDF7F9F900F0BB
:1040F00065FA0028F2D1022371A203210520FDF701
:10410000EFF941F61F41C720FDF7CCFDFDF7A8FBF5
:104110001420FDF729FCC7E020216B48FCF783FC45
:1041200020216A48FCF77FFC0220FEF745FE202193
:104130006548FCF77AFC20216448FCF776FC0A20ED
:10414000FEF73AFE20216048FCF76DFC20215F4815
:10415000FCF769FC5E48007800F08000002868D019
:104160005C48007800F08000002862D05848007851
:1041700000F03F042404584800880444554800785F
:1041800000F03F052D04554800880544204601F005
:10419000DBFD534A534BCDE9000101F07DFCCDE935
:1041A000020101F097FB0646284601F0CDFD4C4A7E
:1041B0004C4BCDE9000101F06FFCCDE9020101F0AB
:1041C00089FB07464849384602F0A4FA20D24649FE
:1041D000304602F09FFA1BD24449304602F0D6FB2B
:1041E000834602F02FFA0FFA80F94049384602F070
:1041F000CDFB834602F026FA0FFA80FA4A463CA12C
:1042000007A8FCF73DF8524639A104A8FCF738F896
:10421000022307AA03210520FDF762F9022304AA5D
:1042200003213C20FDF75CF9002029490870294949
:104230000870314A3149324800F0AEF880B90120A7
:10424000FCF788FD0A900A98012809D14FF47A708A
:10425000FEF78CFD28480068FDF77CFBFDF734FB7A
:10426000B8F1640F1CDD3946304601F011FA3946C9
:104270000390244802F08AFB019002F0E3F98346A0
:104280003146214802F082FB019002F0DBF90290F6
:104290005A4601461DA0039BFBF7E6FF4FF00008BE
:1042A00008F101001FFA80F836E700006F6B00008C
:1042B0006572726F720000004E4F524541445900C2
:1042C0005245414459000000000C014000080140E3
:1042D0004E0000204F00002050000020520000201F
:1042E000295C8FC2F5684D400000A04200002042CA
:1042F00025642020000000000800002004000020A9
:10430000000000200000F84100001442282025642D
:104310002C2025642029617265613A202563200DD7
:104320000A0D0A007047000070B50446002624F00C
:104330000104184890F8240008B1002070BD154809
:10434000807A10B94FF0FF30F8E71248057C807A88
:104350002040104908740846007CA04202D04FF06B
:10436000FF3600E0002614B90A48007D18B101208C
:1043700001F046F902E0002001F042F93CB100F002
:10438000A1FC20B1034805744FF0FF30D6E730465A
:10439000D4E70000780000202DE9F04F99B00446E2
:1043A0000D4616464FF07E574FF000084FF00009BB
:1043B0004FF0000A12A813A918AB0EAACDE90010FD
:1043C00014A916A8FEF7A0FE18B1012019B0BDE887
:1043D000F08FBDF84C0000F4807000287ED00E985D
:1043E00002F06CF983464FF09D4102F035F8074624
:1043F0000F9802F063F983464FF09D4102F02CF8CC
:104400008046109802F05AF983464FF09D4102F021
:1044100023F88146119802F051F983464FF09D41EF
:1044200002F01AF8824639464FF0804002F0A6F9B1
:104430004946059002F0A2F9414607904FF04040EE
:1044400002F09CF95146059002F098F90690079900
:1044500001F094FF834601F065FFCDE90801FEF706
:1044600029F94FF06632544BCDE90A0101F080FC86
:10447000CDE90C0101F02EFA206049464FF0804052
:1044800002F07CF94946029002F078F94146049026
:104490004FF0404002F072F94146029002F06EF98E
:1044A0000390049902F072FA83464FF07E5101F0B6
:1044B00065FF059001F036FFCDE9080139464FF060
:1044C000804002F05BF94146039002F057F94946FB
:1044D00004904FF0804002F051F900E068E051464E
:1044E000039002F04BF98346049901F047FF0590D1
:1044F00001F018FFCDE90601DDE90823FEF722FBF4
:104500004FF066322C4BCDE90A0101F031FCCDE9C8
:104510000C0101F0DFF928605146504602F02EF9F7
:1045200049460490484602F029F941460390404626
:1045300002F024F939460190384602F01FF9009044
:10454000019901F01BFF0290039902F01FFA8346C4
:10455000049902F01BFA059001F0E4FECDE9080190
:104560005146384602F00AF949460490404602F0A6
:1045700005F90390049901F001FF4FF08041059087
:1045800002F0FCF8834601F0CDFECDE90601DDE93D
:104590000823FEF7D7FA4FF06632074BCDE90A0140
:1045A00001F0E6FBCDE90C0101F094F9306001E087
:1045B00002200BE7002009E766A64C4070B50024F6
:1045C000FCF746FC00F026F9002840D1782000F0E6
:1045D00025FFC4B20CB1012070BD7820FFF7A4FE06
:1045E000C4B20CB10220F7E7642000F0C9FEC4B2E7
:1045F0000CB10320F0E7FEF77BFDC4B20CB1042040
:10460000EAE71648FFF708FD0546FEF7CBFFC4B200
:104610000CB10520E0E740F27310FEF711FCC4B2C4
:104620000CB10620D8E76420FEF7ECFEC4B20CB152
:104630000720D1E700F09AFF04460CB10820CBE731
:10464000012000F099FDC4B22CB10920C4E700F0AC
:10465000E1F8C0B2C0E70020BEE70000A4000020DF
:1046600001461148407A30B1012807D0022808D00D
:1046700003280CD108E0022008700BE00420087029
:1046800008E00820087005E01020087002E04FF0F4
:10469000FF30704700BF0448C07C18B1087840065E
:1046A000000E08700020F4E778000020014613484F
:1046B000407A30B1012808D002280AD0032810D14E
:1046C0000BE04FF4804008800EE041F69C700880BB
:1046D0000AE04FF48050088006E04FF40060088044
:1046E00002E04FF0FF30704700BF0448C07C10B1BB
:1046F0000888401008800020F5E7000078000020BE
:1047000001460248007C08700020704778000020B5
:1047100001460F48007A30B1012807D0022809D09D
:1047200003280FD10AE0FA2008800EE04FF4FA7057
:1047300008800AE04FF47A70088006E04FF4FA60CF
:10474000088002E00020088000BF00BF0020704702
:104750007800002001460E48007A30B1012807D0C9
:10476000022808D003280CD108E00A4808600BE0B2
:104770000948086008E00948086005E00848086042
:1047800002E04FF0FF30704700BF0020FBE7000061
:1047900078000020000003430000834233330342CB
:1047A0003333834101461248C07A082817D2DFE824
:1047B00000F01704070A0D101318BC20088013E03E
:1047C0006220088010E02A2008800DE01420088074
:1047D0000AE00A20088007E00520088004E000BF06
:1047E00000BF0020088000BF00BF0020704700000D
:1047F000780000200146064890F8240010B14FF0E0
:10480000FF3070470248C08908800020F9E70000A7
:10481000780000201CB580208DF800005F4A1268E7
:10482000917C5E4A526810786B460122FCF753FD7A
:1048300008B101201CBD6420FEF798FA00208DF815
:104840000000564A1268917C544A526810786B46B0
:104850000122FCF740FD08B10220EBE74F4A126845
:10486000917D4E4A526810786B460622FCF78DFC0B
:1048700008B10320DEE79DF80500C007400F9DF852
:10488000031001F0010140EA41009DF8011001F020
:10489000010140EA01048CB1012C03D101213F4800
:1048A000C1742EE0022C03D100213C48C17428E0E1
:1048B00021463BA0FBF7D8FC0420BBE7374A12682F
:1048C000D178364A526810786B460122FCF75DFCBD
:1048D00008B10520AEE79DF8000000F00F0424B9F0
:1048E0003948FBF7C1FC0620A4E7042C06D137A009
:1048F000FBF7BAFC01212948C17402E000212748D6
:10490000C174FF2125488172FF2024490872FF21CC
:1049100022484172C1724FF6FF71C181FF210174BB
:1049200081740121017380F82210002180F8231086
:10493000417501751630016041608160163880F85C
:10494000241080F82510C1844FF4FA6000F05CFC5C
:1049500008B109206EE7022000F026FB08B10A200A
:1049600068E72A2000F0CAFC08B10B2062E7322079
:1049700000F006FD08B10C205CE70020FFF7D4FC36
:1049800008B10D2056E7002000F050FB08B10F20C1
:1049900050E7002000F042FD00204BE778000020A7
:1049A000556E737570706F7274656420736F667482
:1049B000776172652070726F6475637420726576BA
:1049C0002025642E0A0000008898000848616C6663
:1049D0002073656E73697469766974792070617289
:1049E0007420666F756E642E0A0000002DE9F04396
:1049F00085B005460E4690469946294890F8250010
:104A000020B14FF0FF3005B0BDE8F08316B94FF08C
:104A1000FF30F8E7002423E0281B102801DD1020D8
:104A200000E0281B87B232193946204600F05EFDAF
:104A300010B14FF0FF30E6E701AA3946204600F0FA
:104A400001F910B14FF0FF30DDE730193A4601A906
:104A5000FBF72CFD10B16FF00100D4E7E01984B230
:104A6000AC42D9DB4FEA28208DF8000008F0FF00A7
:104A70008DF801000A4A1268917E094A526810783E
:104A80006B460222FCF727FC10B14FF0FF30BAE76B
:104A90000121034880F82510A0F826900020B2E7F5
:104AA0007800002038B50446282C02DD4FF0FF3096
:104AB00038BDDCB9002000F0EBFB00208DF80000D1
:104AC00007208DF801002E4A1268917C2C4A52680A
:104AD00010786B460222FCF7FEFB10B14FF0FF305E
:104AE000E6E70021264801750020E1E7012000F0FB
:104AF000CFFB20208DF80000012C06D100208DF87E
:104B00000100052000F0FAFB17E0052C06DC01206F
:104B10008DF80100052000F0F1FB0EE0142C06DCFE
:104B200002208DF801000A2000F0E8FB05E00320D8
:104B30008DF80100142000F0E1FB9DF80100072131
:104B400001EB8010C0B28DF801000D4A1268917C13
:104B50000B4A526810786B460222FCF7BCFB10B17E
:104B60004FF0FF30A4E7082105488172002101734E
:104B7000012101750020FFF7D7FB002098E7000016
:104B800078000020F8B504460F4616462C4890F8E9
:104B9000240010B94FF0FF30F8BD2948807A10B9D1
:104BA0004FF0FF30F8E7264A1268917A244A52689B
:104BB00010786B460222FCF7E8FA10B14FF0FF3094
:104BC000EAE79DF801009DF8001040EA0125A542A2
:104BD00003DA00203070401EDEE719484068408844
:104BE000B5EB600F17DD164A1268517C144A526803
:104BF00010786B460122FCF7C8FA10B14FF0FF3075
:104C0000CAE79DF8000000F0100020B100F05AF84B
:104C10006FF00100C0E7E2B2094B1B68D97A084B7C
:104C20005B6818783B46FCF7B0FA10B14FF0FF30E4
:104C3000B2E795FBF4F0401E30700020ACE70000B6
:104C400078000020F8B504460D46164616B94FF018
:104C5000FF30F8BD1A48807A10B94FF0FF30F8E7FE
:104C600020128DF80000E0B28DF801009DF80100DF
:104C70002844134949684989884202DD4FF0FF30D2
:104C8000E7E70F4A1268117E0D4A526810786B46AA
:104C90000222FCF720FB10B14FF0FF30D9E7EAB257
:104CA000074B1B68597D064B5B6818783346FCF749
:104CB0006CFA10B14FF0FF30CBE70020C9E70000DD
:104CC0007800002008B57048807A10B94FF0FF30A6
:104CD00008BD002000906C4A1268D17B6A4A526875
:104CE00010786B460122FCF7F6FA10B14FF0FF3056
:104CF000EEE7654A12685179634A526810786B464C
:104D00000122FCF7E8FA10B14FF0FF30E0E75E4A0D
:104D1000126811795C4A526810786B460122FCF7E0
:104D2000DAFA10B14FF0FF30D2E7574890F824007C
:104D3000002853D00C200090534A12681179524A2F
:104D4000526810786B460122FCF7C5FA10B14FF09B
:104D5000FF30BDE73220FEF709F8C02000904A4836
:104D6000807A00F0010020B19DF8000040F02000A2
:104D70000090454A12681179434A526810786B4690
:104D80000122FCF7A8FA10B14FF0FF30A0E73E482F
:104D9000407C10B10220009001E0002000903A4ACF
:104DA0001268D17B384A526810786B460122FCF7B2
:104DB00092FA10B14FF0FF308AE700200090324A9B
:104DC00012685179304A526810786B460122FCF71C
:104DD00082FA002855D04FF0FF3079E70420009088
:104DE000294A12681179284A526810786B460122C4
:104DF000FCF771FA10B14FF0FF3069E72248807C70
:104E000020B92148807A00F0010010B940200090BC
:104E100001E0602000901C4A126811791A4A526819
:104E200010786B460122FCF756FA10B14FF0FF30B4
:104E30004EE73220FDF79AFF1348407C10B1012065
:104E4000009001E0002000900F4A1268D17B0E4ACA
:104E5000526810786B460122FCF73DFA10B14FF012
:104E6000FF3035E7084A12685179074A52681078CE
:104E7000054B10330122FCF72EFA10B14FF0FF3032
:104E800026E7002024E70000780000202DE9F04FFD
:104E90008DB083460F4602200C90424890F82400C3
:104EA00020B1002000F068F9012600E0002603A8E8
:104EB000FFF72EFC05A8FFF7D3FB01A8FFF772FC54
:104EC00002A8FFF797FC374890F80AA004A8FFF75C
:104ED00017FC002407E0002239465846FEF7DCFDA7
:104EE00000B902E0641C022CF5DB00BF022C01D1EA
:104EF000002528E0002407E0012206A909A8FEF702
:104F0000CBFD00B902E0641C022CF5DB00BF022CD3
:104F100001D1002517E006A93846FDF777FB00F020
:104F2000FF0809A95846FEF7EFFF00F0FF0900252A
:104F3000B9F1000F01D145F00105B8F1000F01D121
:104F400045F0020500BFFF2016490872FF211548F1
:104F50004172C1724FF6FF71C181FF2181720174EC
:104F600001210173BDF80C0000F04EF99DF814000A
:104F700000F01AF8BDF8040000F0C0F9BDF8080010
:104F800000F0FEF9504600F049FA9DF81000FFF7D6
:104F9000CBF916B1012000F0EFF828460DB0BDE8BE
:104FA000F08F00007800002038B504461E48807A53
:104FB00010B94FF0FF3038BD022C06D0042C07D0BA
:104FC000082C08D0102C0CD108E0002000900BE039
:104FD0000820009008E01020009005E018200090C4
:104FE00002E04FF0FF30E6E700BF0F48407A9DF83F
:104FF0000010B0EBE10F01D10020DCE70A4A126893
:10500000D179094A526810786B460122FCF763F99E
:1050100010B14FF0FF30CEE79DF80000C1100248FC
:1050200041720020C7E700007800002038B5044630
:105030005048807CA04201D1002038BD002C46D0D1
:105040004C4A126811794B4A526810786B4601221B
:10505000FCF79BF810B14FF0FF30EEE79DF8000031
:1050600020F020000090434A12681179414A5268AA
:1050700010786B460122FCF72EF910B14FF0FF308B
:10508000DBE70320FDF772FE02200090394890F81C
:10509000220020B19DF8000040F0800000903548CB
:1050A00090F8230020B19DF8000040F030000090FF
:1050B000304A1268117D2F4A526810786B460122DF
:1050C000FCF709F9002851D04FF0FF30B5E7294A25
:1050D00012681179274A526810786B460122FCF752
:1050E00054F810B14FF0FF30A7E72248807A00F063
:1050F000010028B19DF8000040F02000009004E07D
:105100009DF8000020F0200000901A4A12681179E2
:10511000184A526810786B460122FCF7DCF810B18F
:105120004FF0FF3089E70320FDF720FE114890F88B
:10513000220010B18020009001E0002000900D4876
:1051400090F8230020B19DF8000040F0300000905E
:10515000084A1268117D074A526810786B4601228E
:10516000FCF7B9F810B14FF0FF3066E701488474DE
:10517000002062E77800002038B50446214890F806
:105180002400A04201D1002038BD24B31D4890F86E
:10519000250010B94FF0FF30F6E7002000F030FA9C
:1051A0000020FFF743FF1749C88C00F0E9F8002002
:1051B00000901449496808786B4601222321FCF7C6
:1051C0008AF801210F4880F82410012000F018FA15
:1051D000FFF778FD13E0002000F012FA0948007C88
:1051E00000900849496808786B4601222321FCF7A2
:1051F00072F80021034880F82410FFF763FD0020B7
:10520000C2E700007800002038B504461F48807AC5
:1052100010B94FF0FF3038BDFA2C09D0B4F5FA7F41
:1052200009D0B4F57A7F09D0B4F5FA6F0CD108E053
:10523000002000900BE00820009008E01020009073
:1052400005E01820009002E04FF0FF30E3E700BFD8
:105250000E48007A9DF80010B0EBE10F01D100205C
:10526000D9E70A4A12689179084A526810786B4661
:105270000122FCF730F810B14FF0FF30CBE79DF87A
:105280000000C010014908720020C4E77800002027
:1052900038B50446184890F82300A04201D10020F8
:1052A00038BD14B13020009001E000200090124879
:1052B000807C20B19DF8000040F0020000900E4874
:1052C00090F8220020B19DF8000040F0800000908E
:1052D000094A1268117D084A526810786B4601220B
:1052E000FBF7F9FF10B14FF0FF30D9E7024880F823
:1052F00023400020D4E700007800002038B50446A1
:105300001E48807A10B94FF0FF3038BDBC2C02DB4C
:105310000120009015E0622C02DB0220009010E0DA
:105320002A2C02DB032000900BE0142C02DB04206B
:10533000009006E00A2C02DB0520009001E0062028
:1053400000900E48C07A9DF80010884201D10020DC
:10535000DBE70A4A12689178084A526810786B466F
:105360000122FBF7B8FF10B14FF0FF30CDE79DF8F9
:1053700000100248C1720020C7E70000780000203A
:1053800038B504462448807A10B94FF0FF3038BD54
:10539000214890F8240010B14FF0FF30F7E71E4885
:1053A000007D50B134B1282C04DCE0B2FFF77AFB69
:1053B0000020ECE70020FFF775FB042C01DA042441
:1053C00004E0B4F57A7F01DD4FF47A744FF47A701B
:1053D00090FBF4F0401EC0B200900F4A1268517862
:1053E0000D4A526810786B460122FBF774FF10B12A
:1053F0004FF0FF30CBE79DF80000401C4FF47A716E
:1054000091FBF0F081B20448C1810146C98948107E
:10541000FFF774FF0020BAE77800002038B5044693
:1054200004F0700010B10120009005E014B10020DC
:10543000009001E0402000902B4A1268917C2A4A9B
:10544000526810786B460122FBF745FF20B100211E
:1054500025488172481E38BD9DF8000020F04001AB
:10546000214801730020009004F0400020B99DF80D
:10547000000040F00400009004F0200020B99DF8E6
:10548000000040F00200009004F0100020B99DF8E8
:10549000000040F00100009004F0080020B99DF8E1
:1054A000000040F0380000900F4A1268D17C0E4A8C
:1054B000526810786B460122FBF70DFF20B10021E6
:1054C00009488172481EC6E724B1082C02D000208A
:1054D000FFF7DEFE04488472002101753220FDF7DB
:1054E00045FC0020B7E7000078000020F8B504462E
:1054F0000D46164616B94FF0FF30F8BD1A48807AAF
:1055000010B94FF0FF30F8E720128DF80000E0B23C
:105510008DF801009DF80100284413494968498924
:10552000884202DD4FF0FF30E7E70F4A1268117E34
:105530000D4A526810786B460222FBF7CCFE10B180
:105540004FF0FF30D9E7EAB2074B1B68597D064B95
:105550005B6818783346FBF7BEFE10B14FF0FF30A2
:10556000CBE70020C9E700007800002070B588B0C4
:1055700002A905A8FFF78AFC0446032C3ED101A826
:10558000FFF7E8F8059801F099F80646019901F04F
:10559000F5F8054601F056F80590069801F08EF8EA
:1055A0000646019901F0EAF8054601F04BF806902D
:1055B000079801F083F80646019901F0DFF80546E7
:1055C00001F040F8079005A8FDF754FF6846FFF783
:1055D0006DF8BDF80010029848430290BDF8001025
:1055E000039848430390BDF8001004984843049082
:1055F00002A8FDF76FFE002008B070BD0120FBE798
:1056000038B50446214890F82400C0B114B10220F6
:10561000009001E0002000901C4A1268D17B1B4AD8
:10562000526810786B460122FBF755FE10B14FF01F
:10563000FF3038BD9DF800101448417423E0134832
:10564000807A10B94FF0FF30F3E724B10F48407C67
:1056500008B10020EDE714B10120009001E0002026
:1056600000900A4A1268D17B084A526810786B464B
:105670000122FBF730FE10B14FF0FF30D9E79DF863
:105680000010024841740020D3E700007800002099
:105690002DE9F04706460F460024002537493046DD
:1056A00001F069F904463946354801F06FF90546BD
:1056B000204600F0C7FF8046FEF77EF914280ADA7C
:1056C000284600F0BFFF8046FEF776F9142802DA7C
:1056D0004120BDE8F0872B49284601F01BF90FD285
:1056E000204600F0AFFF8246FEF766F9814600F0E3
:1056F000E5FF8046294601F00DF801D24220E8E797
:105700002049204601F006F90FD2284600F09AFF02
:105710008246FEF751F9814600F0D0FF80462146CF
:1057200000F0F8FF01D24320D3E71749284600F0E4
:10573000F1FF0DD22146284600F0ECFF08D284F09C
:1057400000482946404601F0E5F801D24420C0E770
:105750000D49204600F0DEFF0DD22146284601F01B
:10576000D9F808D284F000482946404601F0D2F822
:1057700001D24520ADE74620ABE70000000014420F
:105780000000F8410000A0410000A0C12DE9F04157
:1057900006460F4600F0F6FB041E0D4618BF01201A
:1057A000284320F00040C0F17F6000F1E040C00FCE
:1057B0000ED0301C18BF0120384320F00040C0F14B
:1057C0007F6000F1E040C00F04BF0120FAF722FF24
:1057D00020462946BDE8F08108B501210C20FBF7E1
:1057E00007FF2020ADF8000010208DF803000320F3
:1057F0008DF8020069460D48FBF739F84CF220019C
:105800000A48FBF712F92020ADF8000010208DF8AF
:10581000030003208DF8020069460548FBF727F8CE
:1058200020210348FBF701F908BD0000000C0140EE
:105830000008014010B586B00446012144F204007E
:10584000FBF7D6FE4FF40070ADF8140003208DF87E
:10585000160018208DF8170005A91C48FBF707F85B
:105860004FF48060ADF8140004208DF8170005A9EE
:105870001648FAF7FCFF25208DF8000003208DF86C
:1058800001008DF8020001208DF803006846FBF747
:1058900055FD01940020ADF80800ADF80A00ADF800
:1058A0000C00ADF810000C20ADF80E0001A908485E
:1058B000FCF7A4FD012240F225510548FCF778FDD4
:1058C00001210348FCF73EFD06B010BD0008014071
:1058D0000038014021F00042A2F16052B2F5801F71
:1058E00001F0004328BFD2F17F6C0BD95FEA001CA6
:1058F00043EAC20242EB507018BF704728BF20F045
:1059000001007047B2F5801FBCBF184670474FEAD0
:10591000410C1CF5001F02D2084600F0F6BF70B51E
:1059200000F0D0FA00000089FFF7F6BF4FF000400A
:10593000A0F580007047000010B591EA030F48BF42
:1059400083F0004300F10C84841A71EB030C05D240
:10595000121943EB0C03001B61EB0C01DFF824E18F
:105960004FEA1154A4EB135C1EEA430F18BF9EEAE2
:10597000445F73D023EA0E03DCF1200E21EA0451C8
:1059800043F4801332D322FA0CFE10EB0E0023FAFC
:105990000CFE41EB0E01CCF1200E03FA0EFE10EBD3
:1059A0000E0051F10001B1F5801FCCF1200E32D272
:1059B00001EB045112FA0EF2BDE8104058BF7047D7
:1059C000401C38BF5FEA420218BF7047002814BF6E
:1059D00020F0010041F100014FEA410313F5001FDF
:1059E00038BF7047A1F1C04100F0BABA012A43EBB9
:1059F0000302ACF1200CDCF11F0E32BF4FF0000EA1
:105A000023FA0CF310EB030041EB0451B4EB115FEC
:105A1000D0D0A1EB045101F5801149085FEA3000B4
:105A200001EB04510ED350F1000038BF12FA0EFE04
:105A300008D1BDE81040C9E7401C38BF5FEA420208
:105A4000CAD1C3E7BDE810404FEA410313F5001F78
:105A500038BF7047A1F1C04100F082BA9EEA445FAE
:105A600008D011EA5E0FBDE8104004BF01F000410C
:105A700000207047BDE8104070B500F023FA00BF69
:105A800064FBBE3E0000E0FF02494FF0000000F062
:105A9000F2BF00BF0000F87F2DE9C04130B4DFF84D
:105AA000A0C23CEA111418BF3CEA131400F0EC80C9
:105AB00081EA03051CEA111444EAD57418BF1CEAF4
:105AC000131500F0C780A4EB05044FF0004545EA2C
:105AD000C12145EAC32341EA505143EA525304F13C
